:020000040800F2
:1000000000000120D5170008E5160008ED160008CD
:10001000F5160008FD16000805170008000000008E
:100020000000000000000000000000000D170008A4
:100030001B170008000000002917000837170008E8
:10004000251800082518000825180008251800089C
:10005000251800082518000825180008251800088C
:10006000251800082518000825180008251800087C
:10007000251800082518000825180008251800086C
:1000800025180008251800082518000800000000A1
:10009000000000000000000000000000251800081B
:1000A000251800082518000825180008251800083C
:1000B000251800082518000825180008251800082C
:1000C000251800082518000825180008251800081C
:1000D0002518000825180008251800080000000051
:1000E0002518000825180008251800080000000041
:1000F00000000000000000000000000025180008BB
:100100000000000025180008251800082518000820
:1001100000000000000000000000000000000000DF
:1001200025180008251800082518000825180008BB
:10013000251800080000000000000000000000007A
:10014000000000000000000000000000251800086A
:10015000251800082518000825180008251800088B
:100160002518000825180008000000000000000005
:10017000000000000000000000000000000000007F
:10018000000000002518000800000000000000002A
:040190002518000826
:1001A00010B5054C237833B9044B13B10448AFF3B1
:1001B00000800123237010BD7400002000000000A7
:1001C0009435000808B5034B1BB103490348AFF34E
:1001D000008008BD00000000780000209435000871
:1001E00001F0FF01102A2BDB10F0070F08D010F8E8
:1001F000013B013A8B422DD010F0070F42B3F6D1EC
:10020000F0B441EA012141EA014122F007047FF004
:1002100000070023F0E80256083C85EA010586EA5B
:10022000010685FA47F5A3FA87F586FA47F6A5FA97
:1002300087F68EB9EED1F0BC01F0FF0102F00702A3
:1002400032B110F8013B013A83EA010313B1F8D14E
:100250000020704701387047002D06BF354603382F
:10026000073815F0010F07D1013015F4807F02BF68
:10027000013015F4C03F0130F0BC0138704700BFB9
:1002800053B94AB9002908BF00281CBF4FF0FF31FD
:100290004FF0FF3000F06AB9ADF1080C6DE904CE03
:1002A00000F006F8DDF804E0DDE9022304B0704751
:1002B0002DE9F047089D0C46002B4ED194468C4505
:1002C0008646B2FA82F262D94AB1C2F12003914065
:1002D00020FA03F30CFA02FC194300FA02FE4FEA7B
:1002E0001C471FFA8CF6B1FBF7F44FEA1E4307FBDD
:1002F000141143EA014304FB06F199420AD91CEBAD
:10030000030304F1FF3080F01281994240F20F8123
:10031000023C6344591A1FFA8EF3B1FBF7F007FB56
:10032000101143EA014300FB06F69E420AD91CEB7A
:10033000030300F1FF3180F0FC809E4240F2F9801F
:10034000634402389B1B40EA044000211DB1D340A6
:100350000022C5E90032BDE8F0878B4205D90DB116
:10036000C5E9000100210846F5E7B3FA83F1002949
:1003700046D1A34202D39042C0F0F080861A64EBCB
:1003800003030120002DE6D0C5E90063E3E7002A5E
:1003900040F09080A1EB0C044FEA1C481FFA8CF748
:1003A0000121B4FBF8F64FEA1E4308FB164443EA6A
:1003B000044307FB06F0984208D91CEB030306F13F
:1003C000FF3402D2984200F2CD8026461C1A1FFA52
:1003D0008EF3B4FBF8F008FB104443EA044300FB3F
:1003E00007F79F4208D91CEB030300F1FF3402D248
:1003F0009F4200F2B0802046DB1B40EA0640A5E7A2
:10040000C1F120068B4022FA06F71F4320FA06FCB2
:1004100004FA01F343EA0C03F44000FA01F8380C43
:100420004FEA1349B4FBF0FE1FFA87FC00FB1E44A1
:1004300049EA04440EFB0CF9A14502FA01F20AD97B
:100440003C190EF1FF3A80F08480A14540F2818092
:10045000AEF1020E3C44A4EB09041FFA83F9B4FB8D
:10046000F0F300FB134449EA044403FB0CFCA445ED
:1004700007D93C1903F1FF3067D2A44565D9023B87
:100480003C4443EA0E40A0FB0293A4EB0C049C42C4
:10049000CE469C4651D34ED055B1B8EB0E0364EB1B
:1004A0000C0404FA06F6CB401E43CC40C5E90064B8
:1004B000002150E7C2F1200320FA03F10CFA02FCFC
:1004C00024FA03F394400C434FEA1C4800FA02FE5E
:1004D0001FFA8CF7B3FBF8F008FB1031230C43EA4A
:1004E000014300FB07F1994208D91CEB030300F11B
:1004F000FF362CD299422AD9023863445B1AA4B23F
:10050000B3FBF8F108FB113344EA034401FB07F3A2
:10051000A34208D91CEB040401F1FF3613D2A34215
:1005200011D902396444E41A41EA004139E704462A
:10053000F0E6084606E7C845AED2B9EB020E63EB1B
:10054000070C0138A8E73146EDE7034699E7304646
:10055000D4E7D6467FE7634402384DE70646234694
:1005600008460FE7023E634430E700BF704700BF14
:1005700080B58EB004AF01F057F900F059F800F0E3
:1005800029F900F0B5F800F0CBFA00F015FF0023D0
:100590007B620C237B84032387F821307B6A5A1CFF
:1005A0007A6238461F4A202102F040FB1E4B394632
:1005B000002202924FF6FF7201925A6800921B6865
:1005C0000A468C21122000F0A1FE788C002319220B
:1005D000C32100F0BEFB97F921309AB27B8C134403
:1005E0009BB27B84B7F92230C82B03DCB7F92230E9
:1005F0000B2B05DC97F821305B42DBB287F821300A
:10060000788C4FF6E0731922C32100F0A2FB4FF45F
:100610000051064801F021FC4FF4FA7001F076F920
:10062000BCE700BFAC350008000000200008024015
:1006300080B594B000AF07F12003302200211846A6
:1006400002F028FB07F10C0300221A605A609A603E
:10065000DA601A610023BB60234B1B6C224A43F013
:1006600080531364204B1B6C03F08053BB60BB684A
:1006700000237B601D4B1B6823F440431B4A43F45B
:1006800000431360194B1B6803F440437B607B6895
:1006900002233B620123FB6210233B630023BB6305
:1006A00007F12003184601F0F3FB0346002B01D0AD
:1006B00000F002F90F23FB6000233B6100237B6104
:1006C0000023BB610023FB6107F10C0300211846E6
:1006D00001F056FE0346002B01D000F0EDF800BFFC
:1006E0005037BD4680BD00BF00380240007000405A
:1006F00080B588B000AF07F10C0300221A605A6081
:100700009A60DA601A610023BB602E4B5B6C2D4A45
:1007100043F4805353642B4B5B6C03F48053BB60F6
:10072000BB6800237B60274B1B6B264A43F0010309
:100730001363244B1B6B03F001037B607B68A023D6
:10074000FB6002233B6100237B610323BB61052324
:10075000FB6107F10C0319461B4801F0E1F91B4B43
:100760001B4A1A60194B4FF482725A60174B0022D1
:100770009A60164B0022DA60144B02221A61134B66
:1007800001225A61114B4FF400729A610F4B1022F3
:10079000DA610E4B00221A620C4B00225A620B4B9C
:1007A00000229A62094B0A22DA62084801F094FF9B
:1007B0000346002B01D000F07FF800BF2037BD4674
:1007C00080BD00BF003802400000024090000020C1
:1007D0000030014080B588B000AF07F10C03002263
:1007E0001A605A609A60DA601A610023BB602F4B6E
:1007F0001B6B2E4A43F0040313632C4B1B6B03F05B
:100800000403BB60BB6800237B60284B1B6B274A3B
:1008100043F080031363254B1B6B03F080037B6065
:100820007B6800233B60214B1B6B204A43F0010394
:1008300013631E4B1B6B03F001033B603B680122FB
:100840004FF400511A4801F0EFFA0122042119482F
:1008500001F0EAFA00220821164801F0E5FA012227
:100860000221144801F0E0FA4FF40053FB60012329
:100870003B6100237B610023BB6107F10C03194638
:100880000B4801F04DF90E23FB6001233B6100236F
:100890007B610323BB6107F10C031946054801F096
:1008A0003FF900BF2037BD4680BD00BF0038024081
:1008B000000802400000024080B400AF72B600BFE2
:1008C00000BFFDE780B582B000AF0346FB71002298
:1008D0000821074801F0A8FAF91D4FF0FF33012263
:1008E000044801F082FF00BF0837BD4680BD00BF4D
:1008F000000002409000002080B584B000AF786016
:10090000396001220821124801F08EFA18E03B6894
:10091000B3F5803F02D23B689BB201E04FF6FF7314
:10092000FB81FA894FF0FF3379680A4801F05DFFD7
:10093000FB897A6813447B60FB893A68D31A3B6071
:100940003B68002BE3D100BF00BF1037BD4680BD20
:10095000000002409000002080B582B000AF034646
:10096000FB7101220821074801F05EFAF91D4FF0E2
:10097000FF330122044801F038FF00BF0837BD46AD
:1009800080BD00BF000002409000002080B582B012
:1009900000AF0346FB71FB79002B05D00122022139
:1009A000064801F041FA04E000220221034801F068
:1009B0003BFA00BF0837BD4680BD00BF00000240C3
:1009C00080B582B000AF0346FB71FB7903F00303EF
:1009D000DAB2204B1A703620FFF774FF1D4B1B78DC
:1009E000032B33D801A252F823F000BFFD09000801
:1009F000110A0008250A0008390A00080020FFF73C
:100A0000ABFF154B00221A80144B00221A801DE008
:100A10006020FFF7A1FF104B00221A800F4B00222D
:100A20001A8013E0C020FFF797FF0B4B00221A80BB
:100A30000A4B50221A8009E0A020FFF78DFF064BD9
:100A400050221A80054B00221A8000BF00BF0837D1
:100A5000BD4680BDEC000020E8000020EA00002038
:100A600090B587B000AF0446084611461A462346A3
:100A7000FB800346BB800B467B8013463B80264BA6
:100A80001A88FB881344FB82234B1A887B88134403
:100A9000BB82224B1A88BB8813447B821F4B1A8867
:100AA0003B8813443B822A20FFF70CFFFB8A1B0A7A
:100AB0009BB2DBB23B73FB8ADBB27B73BB8A1B0A44
:100AC0009BB2DBB2BB73BB8ADBB2FB7307F10C03D7
:100AD00004211846FFF710FF2B20FFF7F3FE7B8A57
:100AE0001B0A9BB2DBB23B727B8ADBB27B723B8A16
:100AF0001B0A9BB2DBB2BB723B8ADBB2FB7207F113
:100B0000080304211846FFF7F7FE2C20FFF7DAFE52
:100B100000BF1C37BD4690BDE8000020EA00002061
:100B200080B500AF01220421304801F07DF9322068
:100B300000F0ECFE002204212C4801F075F964203D
:100B400000F0E4FE01220421284801F06DF996200E
:100B500000F0DCFE0120FFF719FF0120FFF7B2FED5
:100B6000962000F0D3FE1120FFF7ACFE962000F097
:100B7000CDFE3A20FFF7A6FE5520FFF7EDFE0A2036
:100B800000F0C4FE0020FFF71BFF0A2000F0BEFEAD
:100B90002120FFF797FE0A2000F0B8FE1320FFF790
:100BA00091FE0A2000F0B2FE2920FFF78BFE96206E
:100BB00000F0ACFE4FF4784000F0BAF84FF4C87083
:100BC00000F0A4FE4FF4FC6000F0B2F84FF4C870DF
:100BD00000F09CFE1F2000F0ABF84FF4C87000F04E
:100BE00095FE002000F0A4F800BF80BD0000024088
:100BF00080B584B000AF0346FB800B46BB80134634
:100C00007B80FB88EF2B17D8BB88EF2B14D8BB88D1
:100C1000FA88B988F888FFF723FF7B881B0A9BB204
:100C2000DBB23B737B88DBB27B7307F10C030221E1
:100C30001846FFF761FE00E000BF1037BD4680BDDB
:100C400090B587B000AF0446084611461A462346C1
:100C5000FB800346BB800B467B8013463B80FB88B2
:100C6000EF2B5ED8BB88EF2B5BD87B88002B58D04E
:100C70003B88002B55D0FA887B881344F02B03DD8A
:100C8000FB88C3F1F0037B80BA883B881344F02BC8
:100C900003DDBB88C3F1F0033B80FA887B881344F3
:100CA0009BB2013B9CB2BA883B8813449BB2013B88
:100CB0009BB2B988F8882246FFF7D2FE3B8D1B0A0B
:100CC0009BB2FB733B8DBB7300237B610CE0174A27
:100CD0007B691344FA7B1A707B6901331349BA7B31
:100CE000CA547B6902337B617B69B3F5F07FEED335
:100CF0007B883A8802FB03F33B610EE03B69F02BF3
:100D000028BFF023BB60BB685B0019460748FFF7AC
:100D1000F3FD3A69BB68D31A3B613B69002BEDD107
:100D200000E000BF1C37BD4690BD00BFF0000020B2
:100D300080B584B002AF0346FB80FB880093F023AC
:100D4000F02200210020FFF77BFF00BF0837BD46DF
:100D500080BD90B585B002AF0446084611461A46DC
:100D60002346FB800346BB800B467B8013463B80BB
:100D70007A88B988F8883B8800930123FFF760FFE1
:100D800000BF0C37BD4690BD90B585B002AF04469C
:100D9000084611461A462346FB800346BB800B4695
:100DA0007B8013463B807A88B988F8883B8800931B
:100DB00013460122FFF744FF00BF0C37BD4690BD2C
:100DC00090B583B000AF0446084611461A46234644
:100DD000FB800346BB800B467B8013463B803B8BEE
:100DE0007A88B988F888FFF7B4FFBA883B8813443B
:100DF0009BB2013B99B23B8B7A88F888FFF7A9FF39
:100E00003B8B3A88B988F888FFF7BEFFFA887B8861
:100E100013449BB2013B98B23B8B3A88B988FFF7E9
:100E2000B3FF00BF0C37BD4690BD90B587B000AF93
:100E30000446084611461A462346FB800346BB80FB
:100E40000B467B8013463B807B88C3F101039BB23A
:100E5000FB820123BB827B881A46D203D31A5B0034
:100E60009BB27B8200233B827B88FB817A88BB8894
:100E7000134499B23A88FB881846FFF7B9FE7B887D
:100E8000BA88D31A99B23A88FB881846FFF7B0FEA1
:100E90007A88FB8813449BB23A88B9881846FFF7D2
:100EA000A7FE7B88FA88D31A9BB23A88B98818467D
:100EB000FFF79EFE81E0B7F91630002B0EDBB7F985
:100EC0000E309BB2013B9BB2FB817B8A02339BB20B
:100ED0007B82FA8A7B8A13449BB2FB82B7F910307B
:100EE0009BB201339BB23B82BB8A02339BB2BB8273
:100EF000FA8ABB8A13449BB2FB823A8AFB8813446A
:100F000098B2FA89BB8813449BB23A881946FFF716
:100F10006FFE3B8AFA88D31A98B2FA89BB881344C9
:100F20009BB23A881946FFF763FE3A8AFB8813445E
:100F300098B2FB89BA88D31A9BB23A881946FFF750
:100F400057FE3B8AFA88D31A98B2FB89BA88D31A1B
:100F50009BB23A881946FFF74BFEFA89FB88134487
:100F600098B23A8ABB8813449BB23A881946FFF775
:100F70003FFEFB89FA88D31A98B23A8ABB88134499
:100F80009BB23A881946FFF733FEFA89FB8813446F
:100F900098B23B8ABA88D31A9BB23A881946FFF7AF
:100FA00027FEFB89FA88D31A98B23B8ABA88D31AEB
:100FB0009BB23A881946FFF71BFEB7F91020B7F924
:100FC0000E309A42FFF677AF00BF00BF1C37BD4618
:100FD00090BD90B587B000AF0446084611461A464A
:100FE0002346FB800346BB800B467B8013463B8039
:100FF0007B88BA88D31A99B27B885B009BB2013395
:101000009AB23B88F888FFF7BFFE7B88C3F10103E3
:101010009BB2FB820123BB827B881A46D203D31A80
:101020005B009BB27B8200233B827B88FB8161E07B
:10103000B7F91630002B0EDBB7F90E309BB2013B2F
:101040009BB2FB817B8A02339BB27B82FA8A7B8ACA
:1010500013449BB2FB82B7F910309BB201339BB2B1
:101060003B82BB8A02339BB2BB82FA8ABB8A13449F
:101070009BB2FB823A8AFB88134498B2FB89BA88F8
:10108000D31A99B2FB895B009BB201339AB23B88B9
:10109000FFF77AFE3B8AFA88D31A98B2FB89BA889E
:1010A000D31A99B2FB895B009BB201339AB23B8899
:1010B000FFF76AFEFA89FB88134498B23B8ABA8824
:1010C000D31A99B23B8A5B009BB201339AB23B8838
:1010D000FFF75AFEFB89FA88D31A98B23B8ABA887E
:1010E000D31A99B23B8A5B009BB201339AB23B8818
:1010F000FFF74AFEB7F91020B7F90E309A4297DB96
:1011000000BF00BF1C37BD4690BD82B090B5ADF5A5
:10111000597D00AF044608461146C7F8743307F5F9
:101120005873A3F25A3322461A8007F55873A3F571
:10113000577302461A8007F55873A3F25D330A46C7
:101140001A7007F55873A3F25D331B781F2B40F21A
:10115000D38007F55873A3F25D331B787E2B00F222
:10116000CB8007F55873A3F25A331B8897F8742382
:101170001344F02B00F3C28007F55873A3F557739F
:101180001B8897F875231344F02B00F3B78097F86A
:1011900074331A4607F55873A3F25A331B88134465
:1011A0009BB2013B9AB297F87533194607F558730D
:1011B000A3F557731B880B449BB2013B9CB207F508
:1011C0005873A3F55773198807F55873A3F25A3368
:1011D00018882346FFF744FC07F55873A3F25D33E4
:1011E0001B78203B97F8752302FB03F3C7F85433B1
:1011F000B7F87C331B0A9BB287F85333B7F87C33BC
:1012000087F85233B7F880331B0A9BB287F8513303
:10121000B7F8803387F850330023C7F85C330023D6
:1012200087F85B335AE0D7F8782397F85B13D7F841
:1012300054330B445B0013441B88A7F84E33002340
:1012400087F85A333FE0B7F84E2397F85A3302FA3B
:1012500003F303F40043002B18D0D7F85C335A1C77
:10126000C7F85C2307F55872A2F5557297F8531327
:10127000D154D7F85C335A1CC7F85C2307F5587271
:10128000A2F5557297F85213D15417E0D7F85C3392
:101290005A1CC7F85C2307F55872A2F5557297F8E7
:1012A0005113D154D7F85C335A1CC7F85C2307F5A7
:1012B0005872A2F5557297F85013D15497F85A33D3
:1012C000013387F85A3397F8743397F85A239A42C0
:1012D000B9D397F85B33013387F85B3397F87533ED
:1012E00097F85B239A429ED307F10C03D7F85C135F
:1012F0001846FFF701FB02E000BF00E000BF07F562
:101300005977BD46BDE8904002B0704782B080B5C5
:1013100088B004AF3A60FB610346FB800B46BB809C
:10132000FB88FB81BB88BB8138E03B681B780A2BBC
:101330000CD1FB88FB817B7F1A46BB8913449BB28F
:101340000233BB813B6801333B6027E0FB893A7F76
:101350001344F02B08DDFB88FB817B7F1A46BB8999
:1013600013449BB20233BB81BB897A7F1344F02BB9
:1013700019DC3B681A78B989F8893B8D0293BB8CDC
:1013800001933B6A0093FB69FFF7BFFE3B7F1A4660
:10139000FB891344FB813B6801333B603B681B784E
:1013A000002BC2D100E000BF00BF1037BD46BDE832
:1013B000804002B07047000080B588B004AF4FF4A1
:1013C0007840FFF7B5FC4FF4AF7000F09FFA4FF490
:1013D000FC60FFF7ADFC4FF4AF7000F097FA1F20F0
:1013E000FFF7A6FC4FF4AF7000F090FA4FF6FF70D5
:1013F000FFF79EFC4FF4AF7000F088FA0020FFF773
:1014000097FCC82000F082FA0F2300932423F022D7
:1014100000210020FFF714FC40F2FF73F02224218A
:101420000020FFF796FC6D4B0F2202924FF6FF72E1
:1014300001925A6800921B68694A08211020FFF740
:1014400065FF684A3B4607CA83E807000023FB7331
:1014500028E0FB7B9BB21A46D20013449B009BB250
:101460000C3398B2FB7B5B0010333B4433F8103CE9
:1014700000930E2320222D21FFF7E2FBFB7B9BB282
:101480001A46D20013449B009BB20C3398B24FF61D
:10149000FF7300930E2320222D21FFF791FCFB7B8D
:1014A0000133FB73FB7B052BD3D943F6E713009382
:1014B0004823DC2244210A20FFF782FC4A4B002209
:1014C00002924FF6A06201925A6800921B68474A46
:1014D0004A211220FFF71AFF434B0022029240F2EA
:1014E000FF7201925A6800921B68414A5A211220E9
:1014F000FFF70CFF3C4B002202924FF4FC6201927A
:101500005A6800921B683B4A6A211220FFF7FEFED0
:10151000354B002202924FF6E07201925A68009217
:101520001B68354A7A211220FFF7F0FE4FF478430A
:101530001822B2212D20FFF778FC4FF4FC63102213
:10154000B2212D20FFF771FC1F230822B2212D208C
:10155000FFF73FFD4FF6205300932D232D229B21B3
:101560005520FFF72DFC47F60F030093192319228E
:10157000A5215F20FFF764FB204B002202924FF46D
:10158000FC6201925A6800921B681D4AA2219120B8
:10159000FFF7BCFE4FF6FF7300931023DC22D72128
:1015A0000A20FFF70DFC0023BB730FE0BB7B9AB250
:1015B00040F2FF7300930C23D9210C20FFF740FB6E
:1015C0000A2000F0A3F9BB7B0433BB73BB7BD82B91
:1015D000ECD900BF00BF1037BD4680BD0800002019
:1015E000BC3500082C36000800000020D03500086B
:1015F000E8350008FC35000814360008100000200B
:101600002836000880B483B000AF00237B60104B05
:101610005B6C0F4A43F4804353640D4B5B6C03F4E3
:1016200080437B607B6800233B60094B1B6C084A4E
:1016300043F080531364064B1B6C03F080533B60F4
:101640003B6800BF0C37BD465DF8047B704700BFA8
:101650000038024080B58AB000AF786007F114030B
:1016600000221A605A609A60DA601A617B681B680F
:10167000194A93422BD100233B61184B5B6C174AEC
:1016800043F480535364154B5B6C03F480533B610C
:101690003B690023FB60114B1B6B104A43F00103B5
:1016A00013630E4B1B6B03F00103FB60FB68A0236D
:1016B0007B610223BB610023FB6103233B620523A3
:1016C0007B6207F114031946054800F029FA00BFB0
:1016D0002837BD4680BD00BF0030014000380240C1
:1016E0000000024080B400AF00BFFDE780B400AF4F
:1016F00000BFFDE780B400AF00BFFDE780B400AFDE
:1017000000BFFDE780B400AF00BFFDE780B400AFCD
:1017100000BFBD465DF8047B704780B400AF00BFDA
:10172000BD465DF8047B704780B400AF00BFBD4686
:101730005DF8047B704780B500AF00F0C7F800BFCC
:1017400080BD000080B586B000AF7860144A154BAC
:10175000D31A7B617B693B61134B1B68002B02D161
:10176000114B124A1A60104B1A687B6813443A698D
:101770009A4207D201F096FA03460C221A604FF003
:10178000FF3309E0084B1B68FB60074B1A687B6856
:101790001344054A1360FB6818461837BD4680BDE0
:1017A0000000012000040000D002002020040020DE
:1017B00080B400AF064BD3F88830054A43F4700379
:1017C000C2F8883000BFBD465DF8047B704700BF9B
:1017D00000ED00E0DFF834D0FFF7EAFF0C480D49D8
:1017E0000D4A002302E0D458C4500433C4188C427C
:1017F000F9D30A4A0A4C002301E013600432A242E2
:10180000FBD301F055FAFEF7B3FE7047000001204C
:101810000000002074000020A05E0008740000207A
:1018200020040020FEE7000080B500AF0E4B1B68CF
:101830000D4A43F4007313600B4B1B680A4A43F4D0
:1018400080631360084B1B68074A43F4807313607E
:10185000032000F031F90F2000F008F8FFF7D2FE66
:101860000023184680BD00BF003C024080B582B016
:1018700000AF7860124B1A68124B1B7819464FF470
:101880007A73B3FBF1F3B2FBF3F3184600F03BF9C4
:101890000346002B01D001230EE07B680F2B0AD8F2
:1018A000002279684FF0FF3000F011F9064A7B689A
:1018B0001360002300E0012318460837BD4680BDB1
:1018C00018000020200000201C00002080B400AF81
:1018D000064B1B781A46064B1B681344044A1360D8
:1018E00000BFBD465DF8047B704700BF20000020AC
:1018F000D402002080B400AF034B1B681846BD46DD
:101900005DF8047B704700BFD402002080B584B02E
:1019100000AF7860FFF7EEFFB8607B68FB60FB68A4
:10192000B3F1FF3F05D00A4B1B781A46FB681344FE
:10193000FB6000BFFFF7DEFF0246BB68D31AFA6800
:101940009A42F7D800BF00BF1037BD4680BD00BF28
:101950002000002080B485B000AF78607B6803F081
:101960000703FB600C4BDB68BB60BA684FF6FF03F4
:101970001340BB60FB681A02BB68134343F0BF63AC
:1019800043F40033BB60044ABB68D36000BF143724
:10199000BD465DF8047B704700ED00E080B400AF09
:1019A000044BDB681B0A03F007031846BD465DF8CD
:1019B000047B704700ED00E080B483B000AF0346C5
:1019C0003960FB7197F90730002B0ADB3B68DAB20C
:1019D0000C4997F907301201D2B20B4483F8002367
:1019E0000AE03B68DAB20849FB7903F00F03043BD5
:1019F0001201D2B20B441A7600BF0C37BD465DF817
:101A0000047B704700E100E000ED00E080B489B0A5
:101A100000AFF860B9607A60FB6803F00703FB6110
:101A2000FB69C3F10703042B28BF0423BB61FB69D7
:101A30000433062B02D9FB69033B00E000237B61E2
:101A40004FF0FF32BB6902FA03F3DA43BB681A4076
:101A50007B699A404FF0FF317B6901FA03F3D94368
:101A60007B680B40134318462437BD465DF8047B62
:101A70007047000080B582B000AF78607B68013BA2
:101A8000B3F1807F01D301230FE00A4A7B68013B59
:101A900053600F214FF0FF30FFF78EFF054B002200
:101AA0009A60044B07221A60002318460837BD4687
:101AB00080BD00BF10E000E080B582B000AF78606C
:101AC0007868FFF747FF00BF0837BD4680BD80B587
:101AD00086B000AF0346B9607A60FB7300237B6178
:101AE000FFF75CFF78617A68B9687869FFF78EFF65
:101AF000024697F90F3011461846FFF75DFF00BF09
:101B00001837BD4680BD80B582B000AF7860786878
:101B1000FFF7B0FF034618460837BD4680BD0000FA
:101B200080B489B000AF7860396000237B61002306
:101B30003B610023BB610023FB6159E10122FB698A
:101B400002FA03F37B613B681B687A6913403B61CF
:101B50003A697B699A4240F048813B685B6803F0D0
:101B60000303012B05D03B685B6803F00303022BE2
:101B700030D17B689B68BB61FB695B00032202FA82
:101B800003F3DB43BA691340BB613B68DA68FB6966
:101B90005B0002FA03F3BA691343BB617B68BA695D
:101BA0009A607B685B68BB610122FB6902FA03F300
:101BB000DB43BA691340BB613B685B681B0903F0F8
:101BC0000102FB6902FA03F3BA691343BB617B6844
:101BD000BA695A603B685B6803F00303032B17D0B4
:101BE0007B68DB68BB61FB695B00032202FA03F3DD
:101BF000DB43BA691340BB613B689A68FB695B00D1
:101C000002FA03F3BA691343BB617B68BA69DA600D
:101C10003B685B6803F00303022B23D1FB69DA08FE
:101C20007B68083253F82230BB61FB6903F007037D
:101C30009B000F2202FA03F3DB43BA691340BB6136
:101C40003B681A69FB6903F007039B0002FA03F380
:101C5000BA691343BB61FB69DA087B680832B9696A
:101C600043F822107B681B68BB61FB695B000322A1
:101C700002FA03F3DB43BA691340BB613B685B685C
:101C800003F00302FB695B0002FA03F3BA69134332
:101C9000BB617B68BA691A603B685B6803F44033D8
:101CA000002B00F0A2800023FB60574B5B6C564A70
:101CB00043F480435364544B5B6C03F48043FB60F8
:101CC000FB68524AFB699B08023352F82330BB6120
:101CD000FB6903F003039B000F2202FA03F3DB43CB
:101CE000BA691340BB617B68494A934219D07B684B
:101CF000484A934213D07B68474A93420DD07B6891
:101D0000464A934207D07B68454A934201D1042357
:101D100008E0072306E0032304E0022302E0012396
:101D200000E00023FA6902F0030292009340BA69CE
:101D30001343BB613549FB699B080233BA6941F81B
:101D40002320384B9B68BB613B69DB43BA69134076
:101D5000BB613B685B6803F48013002B03D0BA6956
:101D60003B691343BB612F4ABB6993602D4BDB6812
:101D7000BB613B69DB43BA691340BB613B685B688D
:101D800003F40013002B03D0BA693B691343BB6112
:101D9000244ABB69D360234B5B68BB613B69DB436F
:101DA000BA691340BB613B685B6803F40033002BE6
:101DB00003D0BA693B691343BB611A4ABB695360DC
:101DC000184B1B68BB613B69DB43BA691340BB61BD
:101DD0003B685B6803F48033002B03D0BA693B692E
:101DE0001343BB610F4ABB691360FB690133FB619D
:101DF000FB690F2B7FF6A2AE00BF00BF2437BD46A4
:101E00005DF8047B704700BF003802400038014095
:101E1000000002400004024000080240000C0240A2
:101E200000100240003C014080B483B000AF7860F5
:101E30000B467B8013467B707B78002B03D07A881F
:101E40007B689A6103E07B881A047B689A6100BF13
:101E50000C37BD465DF8047B704780B485B000AF99
:101E600078600B467B807B685B69FB607A88FB68E7
:101E700013401A04FB68D9437B880B401A437B68E4
:101E80009A6100BF1437BD465DF8047B70470000BF
:101E900080B586B000AF78607B68002B01D101234C
:101EA00067E27B681B6803F00103002B75D0884B49
:101EB0009B6803F00C03042B0CD0854B9B6803F04C
:101EC0000C03082B12D1824B5B6803F48003B3F53B
:101ED000800F0BD17E4B1B6803F40033002B5BD0CB
:101EE0007B685B68002B57D1012342E27B685B680B
:101EF000B3F5803F06D1764B1B68754A43F48033B7
:101F000013601DE07B685B68B3F5A02F0CD1704BAC
:101F10001B686F4A43F4802313606D4B1B686C4A47
:101F200043F4803313600BE0694B1B68684A23F469
:101F300080331360664B1B68654A23F4802313606B
:101F40007B685B68002B13D0FFF7D4FC386108E096
:101F5000FFF7D0FC02463B69D31A642B01D9032357
:101F600007E25B4B1B6803F40033002BF0D014E056
:101F7000FFF7C0FC386108E0FFF7BCFC02463B6994
:101F8000D31A642B01D90323F3E1514B1B6803F4EB
:101F90000033002BF0D100E000BF7B681B6803F02A
:101FA0000203002B63D04A4B9B6803F00C03002B09
:101FB0000BD0474B9B6803F00C03082B1CD1444B00
:101FC0005B6803F48003002B16D1414B1B6803F0C0
:101FD0000203002B05D07B68DB68012B01D00123B5
:101FE000C7E13B4B1B6823F0F8027B681B69DB00F1
:101FF000374913430B603AE07B68DB68002B20D045
:10200000344B01221A60FFF775FC386108E0FFF7D6
:1020100071FC02463B69D31A022B01D90323A8E1C4
:102020002B4B1B6803F00203002BF0D0284B1B68DE
:1020300023F0F8027B681B69DB00254913430B6022
:1020400015E0244B00221A60FFF754FC386108E0C9
:10205000FFF750FC02463B69D31A022B01D9032338
:1020600087E11B4B1B6803F00203002BF0D17B6858
:102070001B6803F00803002B36D07B685B69002BDC
:1020800016D0154B01221A60FFF734FC386108E0C6
:10209000FFF730FC02463B69D31A022B01D9032318
:1020A00067E10B4B5B6F03F00203002BF0D01BE0EA
:1020B000094B00221A60FFF71DFC38610EE0FFF7A4
:1020C00019FC02463B69D31A022B07D9032350E1BE
:1020D0000038024000004742800E4742884B5B6F49
:1020E00003F00203002BEAD17B681B6803F00403B2
:1020F000002B00F097800023FB75814B1B6C03F0D5
:102100008053002B0FD10023BB607D4B1B6C7C4A9E
:1021100043F0805313647A4B1B6C03F08053BB6015
:10212000BB680123FB75774B1B6803F48073002B9E
:1021300018D1744B1B68734A43F480731360FFF724
:10214000D9FB386108E0FFF7D5FB02463B69D31A9B
:10215000022B01D903230CE16A4B1B6803F4807343
:10216000002BF0D07B689B68012B06D1644B1B6F62
:10217000634A43F0010313671CE07B689B68052BEF
:102180000CD15F4B1B6F5E4A43F0040313675C4B3B
:102190001B6F5B4A43F0010313670BE0584B1B6F47
:1021A000574A23F001031367554B1B6F544A23F022
:1021B000040313677B689B68002B15D0FFF79AFB1D
:1021C00038610AE0FFF796FB02463B69D31A41F2F9
:1021D0008832934201D90323CBE0494B1B6F03F0B4
:1021E0000203002BEED014E0FFF784FB38610AE015
:1021F000FFF780FB02463B69D31A41F288329342D3
:1022000001D90323B5E03E4B1B6F03F00203002B03
:10221000EED1FB7D012B05D1394B1B6C384A23F0E5
:10222000805313647B689B69002B00F0A180344BC2
:102230009B6803F00C03082B5CD07B689B69022B26
:1022400041D1314B00221A60FFF754FB386108E09E
:10225000FFF750FB02463B69D31A022B01D9032337
:1022600087E0274B1B6803F00073002BF0D17B68DD
:10227000DA697B681B6A1A437B685B6A9B011A43B5
:102280007B689B6A5B08013B1B041A437B68DB6A23
:102290001B061B4913434B601B4B01221A60FFF7BF
:1022A00029FB386108E0FFF725FB02463B69D31A9A
:1022B000022B01D903235CE0114B1B6803F0007370
:1022C000002BF0D054E0104B00221A60FFF712FBF5
:1022D000386108E0FFF70EFB02463B69D31A022B78
:1022E00001D9032345E0064B1B6803F00073002B64
:1022F000F0D13DE07B689B69012B07D1012338E0D9
:102300000038024000700040600047421B4B5B6891
:10231000FB607B689B69012B28D0FB6803F480027B
:102320007B68DB699A4221D1FB6803F03F027B683E
:102330001B6A9A421AD1FA6847F6C07313407A684A
:10234000526A9201934211D1FB6803F440327B68D8
:102350009B6A5B08013B1B049A4207D1FB6803F0B0
:1023600070627B68DB6A1B069A4201D0012300E0A1
:10237000002318461837BD4680BD00BF0038024014
:1023800080B584B000AF786039607B68002B01D1E4
:102390000123CCE0684B1B6803F007033A689A42BC
:1023A0000CD9654B3A68D2B21A70634B1B6803F0C4
:1023B00007033A689A4201D00123B8E07B681B68A2
:1023C00003F00203002B20D07B681B6803F004039A
:1023D000002B05D0594B9B68584A43F4E053936057
:1023E0007B681B6803F00803002B05D0534B9B68E8
:1023F000524A43F460439360504B9B6823F0F002D1
:102400007B689B684D4913438B607B681B6803F0B6
:102410000103002B44D07B685B68012B07D1474B3D
:102420001B6803F40033002B19D101237FE07B6884
:102430005B68022B03D07B685B68032B07D13F4BA3
:102440001B6803F00073002B09D101236FE03B4BA5
:102450001B6803F00203002B01D1012367E0374B17
:102460009B6823F003027B685B68344913438B60ED
:10247000FFF740FAF8600AE0FFF73CFA0246FB6813
:10248000D31A41F28832934201D903234FE02B4BF8
:102490009B6803F00C027B685B689B009A42EBD15F
:1024A000254B1B6803F007033A689A420CD2224B73
:1024B0003A68D2B21A70204B1B6803F007033A68DF
:1024C0009A4201D0012332E07B681B6803F00403C9
:1024D000002B08D0194B9B6823F4E0527B68DB6823
:1024E000164913438B607B681B6803F00803002BBD
:1024F00009D0124B9B6823F460427B681B69DB00A8
:102500000E4913438B6000F021F802460B4B9B6889
:102510001B0903F00F030A49CB5C22FA03F3094AB3
:102520001360094B1B681846FFF7A0F900231846F3
:102530001037BD4680BD00BF003C0240003802405D
:102540004C5E0008180000201C0000202DE9B04F50
:1025500090B000AF00237B630023FB6300233B6349
:102560000023BB63594B9B6803F00C03082B0DD071
:10257000082B00F2A180002B02D0042B03D09BE09B
:10258000534BBB639BE0534BBB6398E04F4B5B6883
:1025900003F03F037B634D4B5B6803F48003002B28
:1025A00028D04A4B5B689B0900223B627A623B6AF7
:1025B000C3F308000021474B03FB01F2002300FB9B
:1025C00003F31344434AA0FB0212FA620A46BA62BA
:1025D000FA6A1344FB627B6B0022BB61FA61D7E9A4
:1025E0000623D7E90A01FDF74BFE02460B461346C8
:1025F000FB6353E0354B5B689B0900223B617A61CA
:102600003B69C3F3080A4FF0000B52465B464FF09C
:1026100000004FF00001590141EAD2615001024629
:102620000B46B2EB0A0863EB0B094FF000024FF0C8
:1026300000034FEA891343EA98634FEA8812B2EB2A
:10264000080463EB09054FF000024FF00003EB00B4
:1026500043EA5473E20014461D4614EB0A033B6040
:1026600045EB0B037B604FF000024FF00003D7E90E
:10267000004529468B02214643EA915321468A02AE
:10268000104619467B6B0022BB60FA60D7E9022333
:10269000FDF7F6FD02460B461346FB630B4B5B68EA
:1026A0001B0C03F0030301335B003B63FA6B3B6BD2
:1026B000B2FBF3F3BB6302E0054BBB6300BFBB6B34
:1026C00018464037BD46BDE8B08F00BF0038024015
:1026D0000024F40040787D0180B582B000AF7860BE
:1026E0007B68002B01D101237BE07B685B6A002BB8
:1026F00008D17B685B68B3F5827F09D07B680022D4
:10270000DA6105E07B6800221A617B6800225A6169
:102710007B6800229A627B6893F85130DBB2002B11
:1027200006D17B68002283F850207868FEF792FF7C
:102730007B68022283F851207B681B681A687B68DB
:102740001B6822F040021A607B685B6803F48272A7
:102750007B689B6803F404431A437B68DB6803F4DB
:1027600000631A437B681B6903F002031A437B680A
:102770005B6903F001031A437B689B6903F40073F0
:102780001A437B68DB6903F038031A437B681B6AD2
:1027900003F0800342EA03017B689B6A03F4005262
:1027A0007B681B680A431A607B689B691B0C03F0FB
:1027B00004017B685B6A03F010027B681B680A43B4
:1027C0005A607B681B68DA697B681B6822F40062C8
:1027D000DA617B6800225A657B68012283F8512008
:1027E000002318460837BD4680BD80B588B000AFCD
:1027F000F860B9603B601346FB80FFF77BF8F86137
:10280000FB887B83FB6893F85130DBB2012B01D04E
:1028100002232AE1BB68002B02D0FB88002B01D1E8
:10282000012322E1FB6893F85030012B01D10223F0
:102830001BE1FB68012283F85020FB68032283F828
:102840005120FB6800225A65FB68BA681A63FB686E
:10285000FA889A86FB68FA88DA86FB6800229A630F
:10286000FB6800229A87FB680022DA87FB68002257
:102870005A64FB6800221A64FB689B68B3F5004F3A
:102880000FD1FB681B681A68FB681B6822F04002C6
:102890001A60FB681B681A68FB681B6842F4804278
:1028A0001A60FB681B681B6803F04003402B07D0CD
:1028B000FB681B681A68FB681B6842F040021A60DC
:1028C000FB68DB68B3F5006F52D1FB685B68002BD7
:1028D00002D07B8B012B45D1FB681B6B1A88FB68F0
:1028E0001B68DA60FB681B6B9A1CFB681A63FB6849
:1028F000DB8E9BB2013B9AB2FB68DA8632E0FB6862
:102900001B689B6803F00203022B12D1FB681B6B50
:102910001A88FB681B68DA60FB681B6B9A1CFB68F3
:102920001A63FB68DB8E9BB2013B9AB2FB68DA86C6
:1029300018E0FEF7DFFF0246FB69D31A3A689A42B5
:1029400003D83B68B3F1FF3F02D13B68002B09D1AC
:10295000FB68012283F85120FB68002283F8502095
:10296000032382E0FB68DB8E9BB2002BC7D153E0D0
:10297000FB685B68002B02D07B8B012B47D1FB6887
:102980001A6BFB681B680C3312781A70FB681B6BA0
:102990005A1CFB681A63FB68DB8E9BB2013B9AB240
:1029A000FB68DA8633E0FB681B689B6803F0020370
:1029B000022B13D1FB681A6BFB681B680C3312786F
:1029C0001A70FB681B6B5A1CFB681A63FB68DB8E72
:1029D0009BB2013B9AB2FB68DA8618E0FEF78AFFE9
:1029E0000246FB69D31A3A689A4203D83B68B3F1AE
:1029F000FF3F02D13B68002B09D1FB68012283F81D
:102A00005120FB68002283F8502003232DE0FB684F
:102A1000DB8E9BB2002BC6D1FA693968F86800F0EA
:102A2000B1F80346002B02D0FB6820225A65FB68F0
:102A30009B68002B0AD100237B61FB681B68DB6865
:102A40007B61FB681B689B687B617B69FB6801227B
:102A500083F85120FB68002283F85020FB685B6DEF
:102A6000002B01D0012300E0002318462037BD468B
:102A700080BD000080B588B000AFF860B9603B60F1
:102A80001346FB71FEF736FF0246BB6A9B1A3A6893
:102A90001344FB61FEF72EFFB861394B1B685B01E5
:102AA0001B0DFA6902FB03F37B6155E03B68B3F150
:102AB000FF3F51D0FEF71EFF0246BB69D31AFA69E9
:102AC0009A4202D9FB69002B3DD1FB681B685A680A
:102AD000FB681B6822F0E0025A60FB685B68B3F594
:102AE000827F11D1FB689B68B3F5004F04D0FB686F
:102AF0009B68B3F5806F07D1FB681B681A68FB6899
:102B00001B6822F040021A60FB689B6AB3F5005F05
:102B10000FD1FB681B681A68FB681B6822F400521F
:102B20001A60FB681B681A68FB681B6842F4005255
:102B30001A60FB68012283F85120FB68002283F8A9
:102B40005020032318E07B69002B02D10023FB6196
:102B500002E07B69013B7B61FB681B689A68BB688C
:102B60001340BA689A420CBF01230023DBB21A4615
:102B7000FB799A429AD1002318462037BD4680BD82
:102B80001800002080B588B002AFF860B9607A60A4
:102B90007B680093BB6801220221F868FFF76AFF97
:102BA0000346002B07D0FB685B6D43F02002FB68F7
:102BB0005A65032332E01B4B1B681B4AA2FB03230D
:102BC0005B0D4FF47A7202FB03F37B61FB685B6879
:102BD000B3F5827F12D17B680093BB68002280210D
:102BE000F868FFF747FF0346002B16D0FB685B6DC4
:102BF00043F02002FB685A6503230FE07B69002B3A
:102C00000AD07B69013B7B61FB681B689B6803F012
:102C10008003802BF2D000E000BF00231846183755
:102C2000BD4680BD18000020819F5E160CB430B5F3
:102C3000174B0C1E1D689DB008DA8B232B604FF0DC
:102C4000FF301DB0BDE8304002B070474FF4027352
:102C5000ADF8143014BF04F1FF33234604930793F7
:102C60004FF6FF7302900690ADF81630209A21AB14
:102C700002A92846019300F095F9431CBCBF8B23A1
:102C80002B60002CDDD0029B00221A70D9E700BF18
:102C90002400002002440346934200D1704703F809
:102CA000011BF9E7014B1868704700BF24000020A2
:102CB00070B50D4D0D4C641BA4100026A64209D121
:102CC0000B4D0C4C00F066FC641BA4100026A642C1
:102CD00005D170BD55F8043B98470136EEE755F82D
:102CE000043B98470136F2E7985E0008985E0008BA
:102CF000985E00089C5E00087047704738B505462E
:102D0000002941D051F8043C0C1F002BB8BFE41837
:102D100000F0E0F81D4A136833B963601460284678
:102D2000BDE8384000F0DCB8A34208D9206821187B
:102D30008B4201BF19685B6809182160EDE71A46EC
:102D40005B680BB1A342FAD911685018A0420BD1AD
:102D500020680144501883421160E0D118685B6814
:102D6000536008441060DAE702D90C232B60D6E7E1
:102D7000206821188B4204BF19685B68636004BF38
:102D8000091821605460CAE738BD00BF1C04002048
:102D900070B50F4E0C463168054611B900F0A6FB20
:102DA00030602146284600F0A1FB431C03D14FF0C0
:102DB000FF34204670BDC41C24F00304A042F8D0A8
:102DC000211A284600F092FB0130F2D1EFE700BF54
:102DD000180400202DE9F843CD1C25F00305083523
:102DE0000C2D38BF0C25002D064601DBA94204D965
:102DF0000C2333600020BDE8F883DFF8D48000F0B6
:102E000069F8D8F800301C4644BB29463046FFF725
:102E1000BFFF431C044658D1D8F800402746002F76
:102E200043D1002C4BD023683946304604EB0309CC
:102E300000F05CFB814542D121686D1A294630467D
:102E4000FFF7A6FF01303AD023682B442360D8F85F
:102E500000305A6862BBC8F800700FE02268521B4D
:102E600020D40B2A17D96119A342256018BF5960D5
:102E7000636808BFC8F8001062514B60304600F02C
:102E80002FF804F10B00231D20F00700C21A1CBF0D
:102E90001B1AA350AFE76268A3420CBFC8F800201A
:102EA0005A60EBE723466468AEE73C467F68B6E7C6
:102EB0001A465B68A342FBD100235360DEE70C2374
:102EC0003360304600F00CF894E70560D6E700BFA9
:102ED0001C0400200148FFF70FBF00BF14040020AE
:102EE0000148FFF70ABF00BF140400202DE9F04796
:102EF0008E681F46BE420B6882460C4690462DD80F
:102F0000B1F90C2012F4906F26D06569096905EBC0
:102F10004505A3EB010905EBD5757B1C4B446D10F2
:102F20009D4238BF1D46530527D52946FFF752FF5E
:102F3000064660B321694A4600F0E8FAA38923F403
:102F4000906343F08003A381266165614E44A5EB45
:102F500009052660A5603E46BE4200D93E4620686F
:102F60003246414600F0A8FAA3689B1BA360236881
:102F7000334423600020BDE8F0872A4600F0D4FAED
:102F800006460028E0D121695046FFF7B7FE0C2322
:102F9000CAF80030A38943F04003A3814FF0FF300B
:102FA000E9E700002DE9F04F98468B891B069DB09C
:102FB00007460D46144610D50B6973B94021FFF73B
:102FC00009FF2860286130B90C233B604FF0FF30C7
:102FD0001DB0BDE8F08F40236B61002309932023CF
:102FE0008DF82930CDF80C803023DFF89C818DF8E6
:102FF0002A304FF0010923469A4613F8012B0AB1F3
:10300000252AF9D1BAEB040B0BD05B4622462946A0
:103010003846FFF76BFF013000F0A780099A5A4449
:1030200009929AF80030002B00F09F8000234FF0A7
:10303000FF32CDE905230AF1010A049307938DF8C5
:1030400053301A935446052214F8011B4E48FDF7DD
:10305000C7F8049AD8B9D00644BF20238DF853305E
:10306000110744BF2B238DF853309AF800302A2BD8
:1030700015D0079A544600204FF00A0C214611F84B
:10308000013B303B092B4BD9B0B1079214E0A0EBC8
:10309000080309FA03F313430493A246D2E7039B00
:1030A000191D1B680391002BBBBF5B4242F002025B
:1030B00007930793B8BF049223782E2B0AD1637825
:1030C0002A2B32D1039B1A1D1B68039243EAE37338
:1030D00002340593DFF8C0A0217803225046FDF7A3
:1030E0007FF838B1049BA0EB0A00402282401343D2
:1030F0000134049314F8011B24488DF8281006228B
:10310000FDF76EF8002836D0214B1BBB039B07331D
:1031100023F0070308330393099B334409936AE7B9
:103120000CFB02320C460120A8E700230134059372
:1031300019464FF00A0C204610F8012B303A092AA4
:1031400003D9002BC6D00591C4E70CFB012104462E
:103150000123F0E703AB00932A460E4B04A938463F
:10316000AFF30080421C0646D6D1AB895B063FF523
:103170002DAF09982CE703AB00932A46054B04A911
:10318000384600F079F8EDE75C5E0008665E0008FE
:1031900000000000ED2E0008625E00082DE9F047F7
:1031A000164698468A680B69DDF820909342B8BFAE
:1031B0001346336091F8432007460C460AB10133A9
:1031C00033602368990642BF336802333360256851
:1031D00015F0060506D104F1190AE36832689B1A56
:1031E000AB4226DC94F843302268003B18BF012331
:1031F00092062BD404F1430241463846C8470130B9
:103200001ED02368226903F00603042B02BFE56881
:103210003368ED1AA3680CBF25EAE57500259342D3
:10322000C4BF9B1AED1800261A34B5421AD10020EB
:1032300008E00123524641463846C847013003D1D1
:103240004FF0FF30BDE8F0870135C6E7E1185A1CA2
:10325000302081F84300224494F8451082F843104E
:103260000233C7E70123224641463846C8470130AA
:10327000E6D00136D9E700002DE9FF470F7E0C9E0E
:10328000782F914680460C469A4601F1430207D8B2
:10329000622F0AD8002F00F0D280582F00F0B9809A
:1032A00004F1420684F842703AE0A7F16303152B5B
:1032B000F6D801A151F823F0113300082533000896
:1032C000A1320008A1320008A1320008A132000892
:1032D00025330008A1320008A1320008A1320008FD
:1032E000A1320008253400084F330008DF330008FE
:1032F000A1320008A132000847340008A1320008BA
:103300004F330008A1320008A1320008E73300085B
:1033100033681A1D1B68326004F1420684F842309B
:1033200001239DE033682068191D3160060601D530
:103330001D6803E04506FBD5B3F90050002D03DA04
:103340002D236D4284F8433059480A2311E0216847
:103350003368080653F8045B02D4490648BFADB28F
:103360006F2F5348336014BF0A230823002184F8C9
:1033700043106668A660002EA2BF216821F00401F8
:1033800021600DB9002E4BD01646B5FBF3F103FBBF
:103390001157C75D06F8017D2F46BB420D46F4D993
:1033A000082B0BD12368DF0708D523696168994290
:1033B000DEBF302306F8013C06F1FF36921B226186
:1033C000CDF800A04B4603AA21464046FFF7E6FE93
:1033D00001304AD14FF0FF3004B0BDE8F0872368D8
:1033E00043F0200323603348782784F8457023682E
:1033F00031681F0651F8045B02D45F0648BFADB2C6
:103400003160D90744BF43F0200323601DB110236E
:10341000ACE72748E9E7236823F020032360F6E7B9
:103420001646BDE7336825686169181D30602E06B1
:103430001B6801D5196002E06806FBD519800023DE
:1034400023611646BCE733681A1D32601E68626845
:1034500000213046FCF7C4FE08B1801B6060636841
:103460002361002384F84330AAE7236932464946A2
:103470004046D0470130ADD023689B0713D4E068A5
:10348000039B9842B8BF1846A6E701233246494637
:103490004046D04701309DD00135E36803995B1A5F
:1034A000AB42F2DCEBE7002504F11906F5E700BFBB
:1034B0006D5E00087E5E0008884210B501EB0204D4
:1034C00002D98442234607D8431EA14208D011F8EE
:1034D000012B03F8012FF8E7024401468A4200D18C
:1034E00010BD13F8014D02F8014DF7E738B5064D50
:1034F0000023044608462B60FEF724F9431C02D142
:103500002B6803B1236038BD100400200A449142A7
:1035100000F1FF3300D1704710B511F8014B03F8EB
:10352000014F9142F9D110BD2DE9F0418046154679
:103530000C4621B9BDE8F0411146FFF74BBC2AB952
:10354000FFF7DCFB00242046BDE8F08100F01AF80C
:103550008542064602D8B5EB500FF4D829464046BE
:10356000FFF738FC07460028ECD0B5422A46214632
:1035700028BF3246FFF7CAFF21464046FFF7BEFB91
:103580003C46E0E751F8043C181F002BBCBF0B5829
:10359000C0187047F8B500BFF8BC08BC9E4670471D
:0C35A000F8B500BFF8BC08BC9E467047A0
:1035AC00557074696D653A20256C752073000000A8
:1035BC0053544D33324634303120782053543737FE
:1035CC0038390000474D543133302D56312E3020D0
:1035DC00312E332220495053000000005265733ABB
:1035EC002032343078323430205247423536350070
:1035FC0036354B20436F6C6F727320285350492023
:10360C004D6F646529000000476F6F646279652017
:10361C0053534431333036203A4400004F4B210091
:10362C0000F8E0071F00E0FFFF071FF80000000094
:10363C00000000000000000000000000000000007E
:10364C0000100010001000100010001000000010FE
:10365C0000000000002800280028000000000000E6
:10366C00000000000000000000240024007C002466
:10367C000048007C0048004800000000003800545E
:10368C0000500038001400540054003800100000A2
:10369C00002000540058003000280054001400088A
:1036AC000000000000100028002800100034004822
:1036BC000048003400000000001000100010000052
:1036CC0000000000000000000000000000080010D6
:1036DC000020002000200020002000200010000806
:1036EC00002000100008000800080008000800086E
:1036FC00001000200010003800100028000000000E
:10370C00000000000000000000000000001000108D
:10371C00007C001000100000000000000000000001
:10372C00000000000000000000000010001000105D
:10373C000000000000000000000000380000000045
:10374C00000000000000000000000000000000006D
:10375C00000000100000000000080008001000101D
:10376C000010001000200020000000000038004471
:10377C0000440054004400440044003800000000A1
:10378C00001000300050001000100010001000104D
:10379C000000000000380044004400040008001041
:1037AC000020007C000000000038004400040018D9
:1037BC000004000400440038000000000008001859
:1037CC00002800280048007C0008000800000000C9
:1037DC00007C0040004000780004000400440038E5
:1037EC000000000000380044004000780044004411
:1037FC000044003800000000007C000400080010A9
:10380C0000100020002000200000000000380044C0
:10381C00004400380044004400440038000000001C
:10382C000038004400440044003C000400440038CC
:10383C00000000000000000000100000000000006C
:10384C00000000100000000000000000000000104C
:10385C00000000000000001000100010000000002C
:10386C00000C003000400030000C00000000000094
:10387C00000000000000007C0000007C0000000044
:10388C000000000000000000006000180004001898
:10389C000060000000000000003800440004000834
:1038AC000010001000000010000000000038004460
:1038BC00004C0054005C0040004000380000000048
:1038CC0000100028002800280028007C0044004438
:1038DC0000000000007800440044007800440044DC
:1038EC000044007800000000003800440040004014
:1038FC000040004000440038000000000070004808
:10390C0000440044004400440048007000000000E3
:10391C00007C00400040007C004000400040007CE7
:10392C0000000000007C0040004000780040004097
:10393C0000400040000000000038004400400040FF
:10394C00005C0044004400380000000000440044C7
:10395C000044007C0044004400440044000000008B
:10396C00003800100010001000100010001000387B
:10397C000000000000040004000400040004000423
:10398C000044003800000000004400480050006073
:10399C000050004800480044000000000040004077
:1039AC0000400040004000400040007C000000004F
:1039BC000044006C006C005400440044004400447B
:1039CC000000000000440064006400540054004CEB
:1039DC00004C004400000000003800440044004447
:1039EC00004400440044003800000000007800440B
:1039FC0000440044007800400040004000000000FB
:103A0C000038004400440044004400440054003892
:103A1C000004000000780044004400440078004892
:103A2C000048004400000000003800440040003012
:103A3C00000800040044003800000000007C001066
:103A4C00001000100010001000100010000000000A
:103A5C000044004400440044004400440044003846
:103A6C000000000000440044004400280028002806
:103A7C0000100010000000000044004400540054EA
:103A8C000054006C002800280000000000440028AE
:103A9C00002800100010002800280044000000003E
:103AAC0000440044002800280010001000100010F2
:103ABC0000000000007C0004000800100010002032
:103ACC000040007C000000000018001000100010E6
:103ADC000010001000100010001000180020002032
:103AEC00001000100010001000080008000000007A
:103AFC00003000100010001000100010001000101A
:103B0C0000100030001000280028004400000000C5
:103B1C000000000000000000000000000000000099
:103B2C000000000000000000000000FE002000105B
:103B3C000000000000000000000000000000000079
:103B4C000000000000380044003C0044004C0034ED
:103B5C000000000000400040005800640044004495
:103B6C000064005800000000000000000038004411
:103B7C000040004000440038000000000004000435
:103B8C000034004C00440044004C003400000000A1
:103B9C000000000000380044007C00400044003865
:103BAC0000000000000C0010007C00100010001041
:103BBC000010001000000000000000000034004C59
:103BCC0000440044004C00340004007800400040E5
:103BDC00005800640044004400440044000000000D
:103BEC0000100000007000100010001000100010F9
:103BFC000000000000100000007000100010001009
:103C0C0000100010001000E0004000400048005080
:103C1C0000600050004800440000000000700010DC
:103C2C000010001000100010001000100000000028
:103C3C00000000000078005400540054005400545C
:103C4C000000000000000000005800640044004424
:103C5C000044004400000000000000000038004454
:103C6C000044004400440038000000000000000044
:103C7C0000580064004400440064005800400040B8
:103C8C00000000000034004C00440044004C0034A0
:103C9C0000040004000000000058006400400040D4
:103CAC00004000400000000000000000003800440C
:103CBC000030000800440038000000000020002004
:103CCC0000780020002000200020001800000000D8
:103CDC00000000000044004400440044004C003448
:103CEC0000000000000000000044004400280028F0
:103CFC0000280010000000000000000000540054D8
:103D0C000054006C00280028000000000000000097
:103D1C00004400280010001000280044000000009F
:103D2C00000000000044004400280028001000108F
:103D3C000010006000000000007C00080010002053
:103D4C000040007C00000000001800100010001063
:103D5C0000200020001000100010001800100010AF
:103D6C0000100010001000100010001000100010C7
:103D7C0000300010001000100008000800100010A7
:103D8C00001000300000000000000074004C000027
:103D9C000000000000000000000000000000000017
:103DAC000000000000000000000000000000000007
:103DBC000000000000000000000000000000000CEB
:103DCC00000C000C000C000C000C000C000C000C87
:103DDC00000C000C0000000C000C000000000000A7
:103DEC000000001B001B001B001B001B0000000040
:103DFC0000000000000000000000000000000000B7
:103E0C000000000000008019801980198019C07F03
:103E1C00C07F80190033C07FC07F00330033003374
:103E2C0000330000000000000000001E003F807501
:103E3C0080650074003C001E00078005806580656D
:103E4C008075003F001E000400040000000000709C
:103E5C0000D840D8C0D880D900730006000C801B55
:103E6C00C036C066C046C0068003000000000000DB
:103E7C000000001E003F003300330033001E000C16
:103E8C00C03CC066806380618063C03E801C0000C3
:103E9C00000000000000000C000C000C000C000CDA
:103EAC000000000000000000000000000000000006
:103EBC00000000000000000080000001000300066C
:103ECC0000060004000C000C000C000C000C000C94
:103EDC000004000600060003000180000020001012
:103EEC000018000C000C000400060006000600067A
:103EFC00000600060004000C000C00180010002046
:103F0C000000000C002D003F001E003300000000DC
:103F1C000000000000000000000000000000000095
:103F2C0000000000000000000000000C000C000C61
:103F3C00000CC0FFC0FF000C000C000C000C0000BB
:103F4C000000000000000000000000000000000065
:103F5C000000000000000000000000000000000055
:103F6C000000000C000C000400040008000000001D
:103F7C000000000000000000000000000000001E17
:103F8C00001E000000000000000000000000000007
:103F9C000000000000000000000000000000000015
:103FAC0000000000000000000000000C000C0000ED
:103FBC0000000000000000030003000300060006E0
:103FCC0000060006000C000C000C000C0018001879
:103FDC0000180000000000000000001E003F00332D
:103FEC00806180618061806D806D806180618061A5
:103FFC000033003F001E000000000000000000061F
:10400C00000E001E00360026000600060006000604
:10401C000006000600060006000600000000000076
:10402C000000001E003F80738061806180010003EE
:10403C000006000C001800300060807F807F0000BC
:10404C00000000000000001C003E00630063000341
:10405C00000E000E00038001800180618073003F20
:10406C00001E00000000000000000006000E000E04
:10407C00001E001E0016003600360066807F807F12
:10408C000006000600060000000000000000007F93
:10409C00007F006000600060006E007F8063800124
:1040AC00800180618073003F001E00000000000052
:1040BC000000001E003F803380610060006E007FB6
:1040CC0080738061806180618033003F001E00003E
:1040DC00000000000000807F807F8001000300034F
:1040EC0000060006000C000C000C0008001800185C
:1040FC0000180000000000000000001E003F80635C
:10410C00806180610021001E003F806180618061C0
:10411C008061003F001E0000000000000000001E37
:10412C00003F00738061806180618073803F801DDF
:10413C00800180610073003F001E00000000000041
:10414C0000000000000000000000000C000C00004B
:10415C0000000000000000000000000C000C00003B
:10416C000000000000000000000000000000000043
:10417C00000C000C00000000000000000000000C0F
:10418C00000C000400040008000000000000000007
:10419C0080008003000E003800600038000E8003A1
:1041AC008000000000000000000000000000000083
:1041BC00000000000000807F807F00000000807FF6
:1041CC00807F0000000000000000000000000000E4
:1041DC00000000000000000000400070001C000700
:1041EC0080010007001C007000400000000000006F
:1041FC00000000000000001F803FC071C060C000C4
:10420C00C00180030007000E000C000C0000000C25
:10421C00000C0000000000000000001E003F803178
:10422C0080718063806F806D806D806F80670060AF
:10423C000032003E001C0000000000000000000ED8
:10424C00000E001B001B001B001B80318031803FC7
:10425C00803F8031C060C060C06000000000000082
:10426C000000007C007E0063006300630063007E3E
:10427C00007E0063806180618063007F007E0000AF
:10428C00000000000000001E003F803180610060D3
:10429C000060006000600060006080618031003F61
:1042AC00001E0000000000000000007C007F006386
:1042BC008063806180618061806180618061006366
:1042CC000063007E007C0000000000000000807F86
:1042DC00807F0060006000600060007F007F0060F5
:1042EC00006000600060807F807F000000000000A4
:1042FC000000807F807F0060006000600060007FB5
:10430C00007F0060006000600060006000600000E2
:10431C00000000000000001E003F80318061006042
:10432C000060006080638063806180618031803FC9
:10433C00001E0000000000000000806180618061B0
:10434C00806180618061807F807F8061806180611D
:10435C008061806180610000000000000000003F6F
:10436C00003F000C000C000C000C000C000C000CAE
:10437C00000C000C000C003F003F0000000000008F
:10438C00000080018001800180018001800180019A
:10439C0080018001806180618073003F001E0000FD
:1043AC00000000000000C0608061006300660066D1
:1043BC00006C0078007C00660066006380618061A0
:1043CC00C0600000000000000000006000600060A1
:1043DC0000600060006000600060006000600060D1
:1043EC000060807F807F0000000000000000C07132
:1043FC00C071C07BC07AC06AC06AC06EC064C06045
:10440C00C060C060C060C060C06000000000000000
:10441C00000080718071807980798079806D806DE9
:10442C00806D806580678067806780638063000033
:10443C00000000000000001E003F0033806180611E
:10444C008061806180618061806180610033003FA8
:10445C00001E0000000000000000007E007F806352
:10446C008061806180618063007F007E00600060FD
:10447C000060006000600000000000000000001EF2
:10448C00003F003380618061806180618061806168
:10449C00806580670033803F401E000000000000F4
:1044AC000000007E007F8063806180618063007FFC
:1044BC00007E00660063006380618061C060000064
:1044CC00000000000000000E001F80318031003021
:1044DC000038001E00078003806180618031003F3E
:1044EC00001E0000000000000000C0FFC0FF000C18
:1044FC00000C000C000C000C000C000C000C000C50
:10450C00000C000C000C000000000000000080619A
:10451C008061806180618061806180618061806187
:10452C00806180618073003F001E0000000000006D
:10453C000000C060C060C060803180318031001BE1
:10454C00001B001B001B000E000E000E00040000E0
:10455C00000000000000C0C0C0C0C0C0C0C0C0C0CF
:10456C00C0CC804C804C805E8052805280738061C5
:10457C0080610000000000000000C0C0806080610D
:10458C000033003B001E000C000C001E001F003B03
:10459C0080718061C0C00000000000000000C0C03D
:1045AC008061806100330033001E001E000C000C83
:1045BC00000C000C000C000C000C000000000000B3
:1045CC000000803F803F8001000300030006000CC8
:1045DC00000C0018001800300060807F807F000005
:1045EC0000000000000F000F000C000C000C000C71
:1045FC00000C000C000C000C000C000C000C000C4F
:10460C00000C000C000F000F000000180018001820
:10461C00000C000C000C000C000600060006000646
:10462C00000300030003000000000000001E001E39
:10463C00000600060006000600060006000600063E
:10464C00000600060006000600060006001E001EFE
:10465C000000000C000C001E0012003300338061BF
:10466C00806100000000000000000000000000005D
:10467C00000000000000000000000000000000002E
:10468C00000000000000000000000000000000001E
:10469C0000000000E0FF0000000000380018000CD3
:1046AC0000000000000000000000000000000000FE
:1046BC0000000000000000000000000000000000EE
:1046CC00000000000000001F803F80618001801FFF
:1046DC00803F80618063807FC03800000000000054
:1046EC0000000060006000600060006E007F80735E
:1046FC0080618061806180618073007F006E00004A
:10470C000000000000000000000000000000001E7F
:10471C00003F807380610060006080618073003FA7
:10472C00001E0000000000000000800180018001DC
:10473C008001801D803F8073806180618061806119
:10474C008073803F801D000000000000000000000E
:10475C00000000000000001E003F00738061807F9D
:10476C00807F00608071003F001E00000000000090
:10477C000000C007C00F000C000C807F807F000C75
:10478C00000C000C000C000C000C000C000C0000C9
:10479C00000000000000000000000000801D803FB1
:1047AC00807380618061806180618073803F801D37
:1047BC0080018063007F003E0000006000600060AC
:1047CC000060006F807F807180618061806180619A
:1047DC008061806180610000000000000000000624
:1047EC00000600000000003E003E00060006000629
:1047FC00000600060006000600060000000000008F
:10480C000006000600000000003E003E0006000608
:10481C00000600060006000600060006000600461C
:10482C00007E003C00000060006000600060806161
:10483C0000630066006C007C00760063006380619E
:10484C00C0600000000000000000003E003E0006BA
:10485C00000600060006000600060006000600061C
:10486C00000600060006000000000000000000002A
:10487C0000000000000080DDC0FFC0CEC0CCC0CC6A
:10488C00C0CCC0CCC0CCC0CCC0CC00000000000060
:10489C0000000000000000000000006F807F8071AD
:1048AC0080618061806180618061806180610000D5
:1048BC000000000000000000000000000000001ECE
:1048CC00003F807380618061806180618073003FF4
:1048DC00001E0000000000000000000000000000AE
:1048EC00006E007F80738061806180618061807365
:1048FC00007F006E0060006000600060000000003F
:10490C0000000000801D803F8073806180618061A9
:10491C0080618073803F801D800180018001800157
:10492C00000000000000000000000067803F00391C
:10493C00003000300030003000300030003000001B
:10494C000000000000000000000000000000001E3D
:10495C00803F80610060007F803F80018061007F2C
:10496C00001E0000000000000000000000080018FD
:10497C000018007F007F001800180018001800189D
:10498C000018801F800F00000000000000000000D5
:10499C0000000000000080618061806180618061A6
:1049AC00806180618063807F803D0000000000009A
:1049BC0000000000000000000000C0608031803169
:1049CC008031001B001B001B000E000E00060000B7
:1049DC00000000000000000000000000000080DD6E
:1049EC0080DD80DD005500550055007700770022F2
:1049FC000022000000000000000000000000000089
:104A0C000000806100330033001E000C000C001EFF
:104A1C000033003380610000000000000000000043
:104A2C000000000080618061803100330033001B86
:104A3C00001B001B000E000E000E001C007C007002
:104A4C0000000000000000000000C07FC07F80015B
:104A5C0000030006000C00180030C07FC07F00006F
:104A6C000000000080038007000600060006000618
:104A7C000006000E001C001C000E000600060006BE
:104A8C0000060006800780030006000600060006EC
:104A9C0000060006000600060006000600060006DA
:104AAC000006000600060006000600060038003C62
:104ABC00000C000C000C000C000C000E0007000792
:104ACC00000E000C000C000C000C000C003C00381C
:104ADC000000000000000000000000000000803812
:104AEC00807F004700000000000000000000000074
:104AFC0000000000000000000000000000000000AA
:104B0C000000000000000000000000000000000099
:104B1C000000000000000000000000000000000089
:104B2C000000000000000000E003E003E003E003ED
:104B3C00E003E003E003E003C003C003C001C001D5
:104B4C00C001C001C001000000000000E003E00350
:104B5C00E003000000000000000000003C1E3C1EB2
:104B6C003C1E3C1E3C1E3C1E3C1E00000000000077
:104B7C000000000000000000000000000000000029
:104B8C000000000000000000000000000000000019
:104B9C00CE01CE03DE039E039C039C07FF3FFF7FE9
:104BAC003807380F780F780F780EFFFFFFFFF01ED5
:104BBC00F01CE01CE03CE03DE0390000000000008F
:104BCC0000000000FC03FE0FEE1FE01EE01EE01EC6
:104BDC00E01EE01FE00FE007F003FC01FE01FE0108
:104BEC00FE01FE01FE01FE01FE3DFC3FF00FE00167
:104BFC00E001000000000000033E07F78FE78EE79E
:104C0C009EE3BCE3B8E7F8E7F0F7E03FC001FF0331
:104C1C00FF07F307F30FF31EF33CF338F3787FF041
:104C2C003FE000000000000000000000E007F80F6B
:104C3C00780F781F781F781F780FF00FE00F801F08
:104C4C00C37FC3FBE7F3F7F1F7F0FFF07FF03EF81B
:104C5C007F7CFF3FEF1F0000000000000000000001
:104C6C00E003E003E003E003E003C003C001000045
:104C7C000000000000000000000000000000000028
:104C8C000000000000000000000000000000000018
:104C9C00000000003F007C00F001E001C003C007F1
:104CAC0080078007800F000F000F000F000F000F10
:104CBC00000F800F80078007C007C003E001F001E0
:104CCC007C003F000F000000007E001FC007C003E7
:104CDC00E001F001F000F000F800780078007800B6
:104CEC00780078007800F800F000F000F001E001A6
:104CFC00C003C007001F007E00780000E003C00363
:104D0C00C001CE39FF3F7F3F20037003F807780FB7
:104D1C003C1F3806000000000000000000000000EE
:104D2C000000000000000000000000000000000077
:104D3C00000000000000000000000000C001C001E5
:104D4C00C001C001C001C001C001FFFFFFFFC001D5
:104D5C00C001C001C001C001C00100000000000082
:104D6C000000000000000000000000000000000037
:104D7C000000000000000000000000000000000027
:104D8C00000000000000E003E003E003E003E001AA
:104D9C00E001E001C0018003000000000000000001
:104DAC000000000000000000000000000000FE3FBA
:104DBC00FE3F0000000000000000000000000000AA
:104DCC0000000000000000000000000000000000D7
:104DDC0000000000000000000000000000000000C7
:104DEC000000000000000000000000000000E003D4
:104DFC00E003E003E00300000000000000000000FE
:104E0C000F000F001E001E003C003C0078007800D4
:104E1C00F000F000E001E001C003C0038007800750
:104E2C00000F000F001E001E003C003C00780078B4
:104E3C0000F00000F007F80F7C1F3E3E1E3C1F7C6C
:104E4C001F7C0F780F780F780F780F780F780F780A
:104E5C001F7C1F7C1E3C3E3E7C1FF80FF0070000A1
:104E6C000000000000000000F000F007F03FF03FF1
:104E7C00F001F001F001F001F001F001F001F0019E
:104E8C00F001F001F001F001F001F001F001FF3F41
:104E9C00FF3F00000000000000000000E00FF83FA2
:104EAC007C3C3C003E003E003E003C003C007C0054
:104EBC00F800F001E003C0078007000F001E003E61
:104ECC00003CFE3FFE3F0000000000000000000020
:104EDC00F00FF81F7C1C3E003E003E003C003C00E6
:104EEC00F800F00FF80F7C003E001E001E001E00A4
:104EFC001E003E007C1CF81FE01F0000000000009C
:104F0C00000000007800F800F800F801F803F8073A
:104F1C00F807780F781E781E783C78787878FFFF41
:104F2C00FFFF7800780078007800780078000000A7
:104F3C000000000000000000FC1FFC1FFC1F001EF6
:104F4C00001E001E001E001EE01FF81FFC007C004F
:104F5C003E003E001E003E003E003C007C1CF81F44
:104F6C00E01F00000000000000000000FC01FE0734
:104F7C008E0F001F001E003E003C003CF83DFC3F25
:104F8C003E7F1F7E0F3C0F3C0F3C0F3C0F3E1F1E05
:104F9C003E1FFC0FF00300000000000000000000AA
:104FAC00FF3FFF3FFF3F0F001E001E003C0038007C
:104FBC007800F000F000E001E001C003C0038007BE
:104FCC00800F800F000F001F001F0000000000006A
:104FDC0000000000F807FC0F3E1F1E1E1E3E1E3E6A
:104FEC001E1E3C1FF80FF007F80FFC1E3E3E1F3C28
:104FFC001F7C0F7C0F7C1F3C3E3FFC1FF00700000A
:10500C000000000000000000F007F80F7C1E3E3C82
:10501C001E3C1F7C1F7C1F7C1F7C1F3C3F3EFF1FC8
:10502C00EF071F001E001E003E003C00F838F03F4A
:10503C00E01F000000000000000000000000000065
:10504C000000000000000000E003E003E003E003C8
:10505C000000000000000000000000000000E00361
:10506C00E003E003E003000000000000000000008B
:10507C00000000000000000000000000E003E0035E
:10508C00E003E0030000000000000000000000004E
:10509C000000E003E003E003E003E001E001E001D5
:1050AC00C0038003000000000000000000000000AE
:1050BC0003000F003F00FC00F003C00F003F00FE98
:1050CC00003FC00FF003FC003F000F000300000086
:1050DC0000000000000000000000000000000000C4
:1050EC00000000000000000000000000FFFFFFFFB8
:1050FC00000000000000FFFFFFFF000000000000A8
:10510C000000000000000000000000000000000093
:10511C00000000000000000000E000F8007E801F8E
:10512C00E007F8017E001F007E00F801E007801FF9
:10513C00007E00F800E0000000000000000000000D
:10514C00F01FFC3F3E381F381F381E001E003C006D
:10515C007800F000E001C003C003C007C0070000E6
:10516C0000000000C007C007C007000000000000DE
:10517C0000000000F803FE0F1E1F0F3E7F3CFF785F
:10518C00EF79C773C7F38FF38FF38FF39FF39FF30D
:10519C00FF73FF7BF779003C1C1FFC0FF80300002A
:1051AC000000000000000000000000000000E00310
:1051BC00E003F007F007F007780F780F7C0E3C1E29
:1051CC003C1E3E3CFE3FFF3F1F780F780FF007F070
:1051DC0007F00000000000000000000000000000CC
:1051EC000000F83FFC3F3E3C1E3C1E3C1E3C3E3C3F
:1051FC007C3CF03FF83F7E3C1F3C1F3C0F3C0F3C7F
:10520C001F3CFE3FF83F00000000000000000000C3
:10521C00000000000000FF01FF07871F003E003C5C
:10522C00007C00780078007800780078007C007CA6
:10523C00003E003F831FFF07FF010000000000003D
:10524C0000000000000000000000F07FFC7F7E7872
:10525C001F781F780F780F780F780F780F780F78EA
:10526C000F780F781F781E787E78F87FE07F00002B
:10527C000000000000000000000000000000FF3FE4
:10528C00FF3F003E003E003E003E003E003EFE3F23
:10529C00FE3F003E003E003E003E003E003EFF3F13
:1052AC00FF3F0000000000000000000000000000B4
:1052BC000000FF1FFF1F001E001E001E001E001E10
:1052CC00001EFF1FFF1F001E001E001E001E001EE2
:1052DC00001E001E001E0000000000000000000068
:1052EC00000000000000FE03FF0F871F003E007C43
:1052FC00007C007800F800F87FF87FF80F780F7CBE
:10530C000F7C0F3E8F1FFF0FFE03000000000000FC
:10531C00000000000000000000001F7C1F7C1F7CB0
:10532C001F7C1F7C1F7C1F7C1F7CFF7FFF7F1F7CD3
:10533C001F7C1F7C1F7C1F7C1F7C1F7C1F7C000024
:10534C000000000000000000000000000000FF3F13
:10535C00FF3FE003E003E003E003E003E003E003CE
:10536C00E003E003E003E003E003E003E003FF3FBE
:10537C00FF3F0000000000000000000000000000E3
:10538C000000FC1FFC1F7C007C007C007C007C006F
:10539C007C007C007C007C007C007C007800780029
:1053AC00F838F03FC03F0000000000000000000093
:1053BC000000000000001F3C1E3C3C3C783CF03CD4
:1053CC00E03DE03FC03F803FC03FE03FF03DF03C60
:1053DC00783C7C3C3E3C1F3C0F3C00000000000035
:1053EC0000000000000000000000003E003E003EF7
:1053FC00003E003E003E003E003E003E003E003EB1
:10540C00003E003E003E003E003EFF3FFF3F0000DE
:10541C0000000000000000000000000000001FF869
:10542C001FFC1FFC3FFE3FFE3FFE7FFF77FF77FF19
:10543C00F7F7E7F7E7F3E7F3C7F307F007F007F041
:10544C0007F0000000000000000000000000000059
:10545C0000000F7C0F7C0F7E0F7F0F7F8F7F8F7F65
:10546C00CF7FEF7BEF79FF79FF78FF787F783F78FC
:10547C003F781F781F78000000000000000000003B
:10548C00000000000000F007FC1F3E3E1F7C0F7860
:10549C000F780FF80FF80FF80FF80FF80FF80F78C8
:1054AC000F781F7C3E3EFC1FF00700000000000040
:1054BC0000000000000000000000FC3FFF3F1F3E0A
:1054CC000F3E0F3E0F3E0F3E1F3E3F3EFC3FF03F58
:1054DC00003E003E003E003E003E003E003E00000E
:1054EC000000000000000000000000000000F007B9
:1054FC00FC1F3E3E1F7C0F780F780FF80FF80FF84B
:10550C000FF80FF80FF80F780F781F7C3E3EFC1F3A
:10551C00F8077C003F000F000300000000000000B3
:10552C000000F03FFC3F7E3C3E3C1E3C1E3C3E3CA3
:10553C003C3CFC3CF03FE03FF03DF83C7C3C3E3CCE
:10554C001E3C1F3C0F3C000000000000000000004F
:10555C00000000000000FC07FE1F0E3E003C003C5B
:10556C00003C003EC01FF80FFE037F001F000F0021
:10557C000F001F203E3CFC3FF01F0000000000000D
:10558C0000000000000000000000FFFFFFFFE00330
:10559C00E003E003E003E003E003E003E003E003E7
:1055AC00E003E003E003E003E003E003E0030000BA
:1055BC0000000000000000000000000000000F7C54
:1055CC000F7C0F7C0F7C0F7C0F7C0F7C0F7C0F7C77
:1055DC000F7C0F7C0F7C0F7C1E3C1E3C3E3EFC1F48
:1055EC00F0070000000000000000000000000000B8
:1055FC00000007F007F007F80F780F7C1E3C1E3CEC
:10560C001E3E3C1E3C1F781F780FF80FF007F0076A
:10561C00F007E003E00300000000000000000000C1
:10562C0000000000000003E003F003F007F0E7F3D4
:10563C00E7F3E7F3E773F77BF77FFF7F7F7F7F7FEE
:10564C007E7F7E3F3E3E3E3E3E3E00000000000020
:10565C000000000000000000000007F80F7C1E3E58
:10566C003E3E3C1FF80FF007E007E003E003F007B5
:10567C00F80F7C0F7C1E3E3C1F780F780FF000005B
:10568C00000000000000000000000000000007F80F
:10569C0007780F7C1E3C1E3E3C1F780FF80FF0075E
:1056AC00E003E003E003E003E003E003E003E003D6
:1056BC00E0030000000000000000000000000000FB
:1056CC000000FF7FFF7F0F001F003E007C00F800F2
:1056DC00F000E001E003C007800F000F001E003E49
:1056EC00007CFF7FFF7F0000000000000000000036
:1056FC00FF078007800780078007800780078007E7
:10570C008007800780078007800780078007800755
:10571C008007800780078007800780078007FF07C6
:10572C00FF07000000780078003C003C001E001EC3
:10573C00000F000F80078007C003C003E001E001E9
:10574C00F000F000780078003C003C001E001E00C9
:10575C000F000F0007000000F07FF000F000F000D9
:10576C00F000F000F000F000F000F000F000F000AD
:10577C00F000F000F000F000F000F000F000F0009D
:10578C00F000F000F000F07FF07F0000C000C001DE
:10579C00C001E003E003F007F0077807780F380F3B
:1057AC003C1E3C1E1E3C1E3C0F380F780778000038
:1057BC0000000000000000000000000000000000DD
:1057CC0000000000000000000000000000000000CD
:1057DC0000000000000000000000000000000000BD
:1057EC0000000000000000000000FFFFFFFF0000B1
:1057FC0000000000F00000000000000000000000AD
:10580C00000000000000000000000000000000008C
:10581C00000000000000000000000000000000007C
:10582C00000000000000000000000000000000006C
:10583C0000000000F80FFC3F7C3C3E003E003E00A8
:10584C00FE07FE1F3E3E3E7C3E783E7C7E7CFF3F4C
:10585C00CF1F00000000000000000000003C003CD6
:10586C00003C003C003C003CF83DFE3F3E3F1F3EF0
:10587C000F3C0F3C0F3C0F3C0F3C0F3C1F3C1E3CA5
:10588C003E3FFC3FF03B0000000000000000000029
:10589C00000000000000000000000000FE03FF0FED
:1058AC00871F003E003E003C007C007C007C003CDE
:1058BC00003E003E871FFF0FFE03000000000000AB
:1058CC00000000001F001F001F001F001F001F0012
:1058DC00FF07FF1F3F3E1F3C1F7C1F7C1F7C1F7858
:1058EC001F781F7C1F7C3F3C7F3EFF1FDF0F00009B
:1058FC00000000000000000000000000000000009C
:10590C0000000000F803FC0F3E1F1E3E1F3C1F7CD6
:10591C00FF7FFF7F007C007C003C003E071FFF0FD9
:10592C00FE0300000000000000000000FF01E10386
:10593C00C003C007C007C007FF7FFF7FC007C007B9
:10594C00C007C007C007C007C007C007C007C00713
:10595C00C007C007C00700000000000000000000E6
:10596C00000000000000000000000000EF07FF1F17
:10597C007F3E1F3C1F7C1F7C1F781F781F781F7C6D
:10598C001F7C3F3C7F3EFF1FDF0F1E001E001E00D2
:10599C007C38F83F003C003C003C003C003C003CA8
:1059AC00FC3DFE3F9E3F1F3F1F3E1F3C1F3C1F3CCC
:1059BC001F3C1F3C1F3C1F3C1F3C1F3C1F3C00005E
:1059CC000000000000000000F001F00100000000E9
:1059DC0000000000E07FE07FE001E001E001E00179
:1059EC00E001E001E001E001E001E001E001E001A3
:1059FC00E00100000000000000000000F800F800CA
:105A0C000000000000000000F83FF83FF800F8002C
:105A1C00F800F800F800F800F800F800F800F800BA
:105A2C00F800F800F800F800F800F000F071E07FE2
:105A3C00003C003C003C003C003C003C1F3C3E3C1D
:105A4C007C3CF83CF03DE03DC03FC03FE03FF03DCA
:105A5C00F83C7C3C3E3C1F3C1F3C0000000000001E
:105A6C0000000000F07FF001F001F001F001F00106
:105A7C00F001F001F001F001F001F001F001F00192
:105A8C00F001F001F001F001F001F001F001000073
:105A9C0000000000000000000000000000000000FA
:105AAC00000000009EF7FFFFFFFFFFFFE7FBE7F999
:105ABC00C7F1C7F1C7F1C7F1C7F1C7F1C7F1C7F11A
:105ACC00C7F1000000000000000000000000000012
